{
  "contractName": "MyContract",
  "abi": [
    {
      "constant": true,
      "inputs": [
        {
          "internalType": "uint256",
          "name": "",
          "type": "uint256"
        }
      ],
      "name": "addedStudents",
      "outputs": [
        {
          "internalType": "address",
          "name": "",
          "type": "address"
        }
      ],
      "payable": false,
      "stateMutability": "view",
      "type": "function"
    },
    {
      "constant": true,
      "inputs": [],
      "name": "ansCount",
      "outputs": [
        {
          "internalType": "uint256",
          "name": "",
          "type": "uint256"
        }
      ],
      "payable": false,
      "stateMutability": "view",
      "type": "function"
    },
    {
      "constant": true,
      "inputs": [
        {
          "internalType": "uint256",
          "name": "",
          "type": "uint256"
        }
      ],
      "name": "answers",
      "outputs": [
        {
          "internalType": "uint256",
          "name": "queId",
          "type": "uint256"
        },
        {
          "internalType": "address payable",
          "name": "author",
          "type": "address"
        },
        {
          "internalType": "string",
          "name": "answer",
          "type": "string"
        },
        {
          "internalType": "uint256",
          "name": "tipAmount",
          "type": "uint256"
        }
      ],
      "payable": false,
      "stateMutability": "view",
      "type": "function"
    },
    {
      "constant": true,
      "inputs": [],
      "name": "queCount",
      "outputs": [
        {
          "internalType": "uint256",
          "name": "",
          "type": "uint256"
        }
      ],
      "payable": false,
      "stateMutability": "view",
      "type": "function"
    },
    {
      "constant": true,
      "inputs": [
        {
          "internalType": "uint256",
          "name": "",
          "type": "uint256"
        }
      ],
      "name": "questions",
      "outputs": [
        {
          "internalType": "uint256",
          "name": "id",
          "type": "uint256"
        },
        {
          "internalType": "address",
          "name": "author",
          "type": "address"
        },
        {
          "internalType": "string",
          "name": "question",
          "type": "string"
        }
      ],
      "payable": false,
      "stateMutability": "view",
      "type": "function"
    },
    {
      "constant": true,
      "inputs": [],
      "name": "stuCount",
      "outputs": [
        {
          "internalType": "uint256",
          "name": "",
          "type": "uint256"
        }
      ],
      "payable": false,
      "stateMutability": "view",
      "type": "function"
    },
    {
      "constant": true,
      "inputs": [
        {
          "internalType": "uint256",
          "name": "",
          "type": "uint256"
        }
      ],
      "name": "students",
      "outputs": [
        {
          "internalType": "uint256",
          "name": "id",
          "type": "uint256"
        },
        {
          "internalType": "string",
          "name": "userName",
          "type": "string"
        },
        {
          "internalType": "address",
          "name": "accountAddress",
          "type": "address"
        }
      ],
      "payable": false,
      "stateMutability": "view",
      "type": "function"
    },
    {
      "constant": false,
      "inputs": [
        {
          "internalType": "string",
          "name": "_question",
          "type": "string"
        }
      ],
      "name": "postQuestion",
      "outputs": [],
      "payable": false,
      "stateMutability": "nonpayable",
      "type": "function"
    },
    {
      "constant": false,
      "inputs": [
        {
          "internalType": "uint256",
          "name": "_queId",
          "type": "uint256"
        },
        {
          "internalType": "string",
          "name": "_answer",
          "type": "string"
        }
      ],
      "name": "addAnswer",
      "outputs": [],
      "payable": false,
      "stateMutability": "nonpayable",
      "type": "function"
    },
    {
      "constant": false,
      "inputs": [
        {
          "internalType": "uint256",
          "name": "_ansCount",
          "type": "uint256"
        }
      ],
      "name": "tipAnswer",
      "outputs": [],
      "payable": true,
      "stateMutability": "payable",
      "type": "function"
    },
    {
      "constant": false,
      "inputs": [
        {
          "internalType": "string",
          "name": "_userName",
          "type": "string"
        },
        {
          "internalType": "address",
          "name": "_studentAddress",
          "type": "address"
        }
      ],
      "name": "addStudent",
      "outputs": [],
      "payable": false,
      "stateMutability": "nonpayable",
      "type": "function"
    }
  ],
  "bytecode": "0x6080604052600080556000600155600060025534801561001e57600080fd5b50610ea98061002e6000396000f3fe60806040526004361061009c5760003560e01c806331b1b9781161006457806331b1b978146103c55780633c7c3961146104b35780637116cad8146104de5780637491995a146105a6578063afcc030614610678578063f3c5ca03146106a35761009c565b806306ead22e146100a157806310468c2f1461018f57806317599cc5146102775780631cd86e8f1461036c5780632160fc021461039a575b600080fd5b3480156100ad57600080fd5b506100da600480360360208110156100c457600080fd5b810190808035906020019092919050505061071e565b60405180848152602001806020018373ffffffffffffffffffffffffffffffffffffffff1673ffffffffffffffffffffffffffffffffffffffff168152602001828103825284818151815260200191508051906020019080838360005b83811015610152578082015181840152602081019050610137565b50505050905090810190601f16801561017f5780820380516001836020036101000a031916815260200191505b5094505050505060405180910390f35b34801561019b57600080fd5b50610275600480360360408110156101b257600080fd5b81019080803590602001906401000000008111156101cf57600080fd5b8201836020820111156101e157600080fd5b8035906020019184600183028401116401000000008311171561020357600080fd5b91908080601f016020809104026020016040519081016040528093929190818152602001838380828437600081840152601f19601f820116905080830192505050505050509192919290803573ffffffffffffffffffffffffffffffffffffffff169060200190929190505050610800565b005b34801561028357600080fd5b506102b06004803603602081101561029a57600080fd5b81019080803590602001909291905050506108fd565b604051808581526020018473ffffffffffffffffffffffffffffffffffffffff1673ffffffffffffffffffffffffffffffffffffffff16815260200180602001838152602001828103825284818151815260200191508051906020019080838360005b8381101561032e578082015181840152602081019050610313565b50505050905090810190601f16801561035b5780820380516001836020036101000a031916815260200191505b509550505050505060405180910390f35b6103986004803603602081101561038257600080fd5b81019080803590602001909291905050506109f2565b005b3480156103a657600080fd5b506103af610a95565b6040518082815260200191505060405180910390f35b3480156103d157600080fd5b506103fe600480360360208110156103e857600080fd5b8101908080359060200190929190505050610a9b565b604051808481526020018373ffffffffffffffffffffffffffffffffffffffff1673ffffffffffffffffffffffffffffffffffffffff16815260200180602001828103825283818151815260200191508051906020019080838360005b8381101561047657808201518184015260208101905061045b565b50505050905090810190601f1680156104a35780820380516001836020036101000a031916815260200191505b5094505050505060405180910390f35b3480156104bf57600080fd5b506104c8610b7d565b6040518082815260200191505060405180910390f35b3480156104ea57600080fd5b506105a46004803603602081101561050157600080fd5b810190808035906020019064010000000081111561051e57600080fd5b82018360208201111561053057600080fd5b8035906020019184600183028401116401000000008311171561055257600080fd5b91908080601f016020809104026020016040519081016040528093929190818152602001838380828437600081840152601f19601f820116905080830192505050505050509192919290505050610b83565b005b3480156105b257600080fd5b50610676600480360360408110156105c957600080fd5b8101908080359060200190929190803590602001906401000000008111156105f057600080fd5b82018360208201111561060257600080fd5b8035906020019184600183028401116401000000008311171561062457600080fd5b91908080601f016020809104026020016040519081016040528093929190818152602001838380828437600081840152601f19601f820116905080830192505050505050509192919290505050610c17565b005b34801561068457600080fd5b5061068d610d0d565b6040518082815260200191505060405180910390f35b3480156106af57600080fd5b506106dc600480360360208110156106c657600080fd5b8101908080359060200190929190505050610d13565b604051808273ffffffffffffffffffffffffffffffffffffffff1673ffffffffffffffffffffffffffffffffffffffff16815260200191505060405180910390f35b6004602052806000526040600020600091509050806000015490806001018054600181600116156101000203166002900480601f0160208091040260200160405190810160405280929190818152602001828054600181600116156101000203166002900480156107d05780601f106107a5576101008083540402835291602001916107d0565b820191906000526020600020905b8154815290600101906020018083116107b357829003601f168201915b5050505050908060020160009054906101000a900473ffffffffffffffffffffffffffffffffffffffff16905083565b6002600081548092919060010191905055506000600460006002548152602001908152602001600020905082816001019080519060200190610843929190610d4f565b50818160020160006101000a81548173ffffffffffffffffffffffffffffffffffffffff021916908373ffffffffffffffffffffffffffffffffffffffff160217905550600254816000018190555060068290806001815401808255809150509060018203906000526020600020016000909192909190916101000a81548173ffffffffffffffffffffffffffffffffffffffff021916908373ffffffffffffffffffffffffffffffffffffffff16021790555050505050565b6005818154811061090a57fe5b90600052602060002090600402016000915090508060000154908060010160009054906101000a900473ffffffffffffffffffffffffffffffffffffffff1690806002018054600181600116156101000203166002900480601f0160208091040260200160405190810160405280929190818152602001828054600181600116156101000203166002900480156109e25780601f106109b7576101008083540402835291602001916109e2565b820191906000526020600020905b8154815290600101906020018083116109c557829003601f168201915b5050505050908060030154905084565b600060058281548110610a0157fe5b9060005260206000209060040201905060008160010160009054906101000a900473ffffffffffffffffffffffffffffffffffffffff1690508073ffffffffffffffffffffffffffffffffffffffff166108fc349081150290604051600060405180830381858888f19350505050158015610a80573d6000803e3d6000fd5b50348260030154018260030181905550505050565b60025481565b60036020528060005260406000206000915090508060000154908060010160009054906101000a900473ffffffffffffffffffffffffffffffffffffffff1690806002018054600181600116156101000203166002900480601f016020809104026020016040519081016040528092919081815260200182805460018160011615610100020316600290048015610b735780601f10610b4857610100808354040283529160200191610b73565b820191906000526020600020905b815481529060010190602001808311610b5657829003601f168201915b5050505050905083565b60015481565b6000808154809291906001019190505550600060036000805481526020019081526020016000209050338160010160006101000a81548173ffffffffffffffffffffffffffffffffffffffff021916908373ffffffffffffffffffffffffffffffffffffffff16021790555081816002019080519060200190610c07929190610d4f565b5060005481600001819055505050565b600160008154809291906001019190505550600560405180608001604052808481526020013373ffffffffffffffffffffffffffffffffffffffff1681526020018381526020016000815250908060018154018082558091505090600182039060005260206000209060040201600090919290919091506000820151816000015560208201518160010160006101000a81548173ffffffffffffffffffffffffffffffffffffffff021916908373ffffffffffffffffffffffffffffffffffffffff1602179055506040820151816002019080519060200190610cfb929190610dcf565b50606082015181600301555050505050565b60005481565b60068181548110610d2057fe5b906000526020600020016000915054906101000a900473ffffffffffffffffffffffffffffffffffffffff1681565b828054600181600116156101000203166002900490600052602060002090601f016020900481019282601f10610d9057805160ff1916838001178555610dbe565b82800160010185558215610dbe579182015b82811115610dbd578251825591602001919060010190610da2565b5b509050610dcb9190610e4f565b5090565b828054600181600116156101000203166002900490600052602060002090601f016020900481019282601f10610e1057805160ff1916838001178555610e3e565b82800160010185558215610e3e579182015b82811115610e3d578251825591602001919060010190610e22565b5b509050610e4b9190610e4f565b5090565b610e7191905b80821115610e6d576000816000905550600101610e55565b5090565b9056fea265627a7a72315820180b82ca2ac0c487e2a6f60efdd694f7198f3f354d1526a78880b73387db50d064736f6c63430005100032",
  "source": "// SPDX-License-Identifier: GPL-3.0\r\n\r\npragma solidity >=0.5.0 <0.9.0;\r\ncontract MyContract {\r\n  \r\n    uint256 public queCount = 0;\r\n    uint256 public ansCount = 0;\r\n    uint256 public stuCount = 0;\r\n    mapping(uint256 => Question) public questions;\r\n    mapping(uint256 => Student) public students;\r\n    \r\n    Answer[] public answers;\r\n    \r\n    address[] public addedStudents;\r\n\r\n    struct  Answer {\r\n        uint256 queId;\r\n        address payable author;\r\n        string answer;\r\n        uint tipAmount;\r\n    }\r\n\r\n    struct Question {\r\n        uint256 id;\r\n        address author;\r\n        string question;\r\n    }\r\n\r\n    struct Student {\r\n        uint256 id;\r\n        string userName;\r\n        address accountAddress;\r\n    }\r\n    \r\n\r\n    function postQuestion(string memory _question) public {\r\n        \r\n        queCount++;    \r\n        Question storage questionObj = questions[queCount];\r\n        questionObj.author = msg.sender;\r\n        questionObj.question = _question;\r\n        questionObj.id = queCount;\r\n    }\r\n    \r\n    function addAnswer(uint _queId, string memory _answer) public{\r\n\r\n        ansCount++;\r\n        answers.push(Answer({\r\n            queId : _queId,\r\n            author: msg.sender,\r\n            answer: _answer,\r\n            tipAmount: 0\r\n        }));\r\n    }\r\n\r\n    function tipAnswer(uint256 _ansCount) public payable{\r\n        Answer storage answerObj = answers[_ansCount];\r\n        // Fetch the author\r\n        address payable _author = answerObj.author;\r\n        (_author).transfer(msg.value);\r\n        answerObj.tipAmount = answerObj.tipAmount + msg.value;\r\n    }\r\n    \r\n    function addStudent(string memory _userName, address _studentAddress) public {\r\n        \r\n        stuCount++;    \r\n        Student storage stuObj = students[stuCount];\r\n        stuObj.userName = _userName;\r\n        stuObj.accountAddress = _studentAddress;\r\n        stuObj.id = stuCount;\r\n        addedStudents.push(_studentAddress);    \r\n    }\r\n    \r\n}\r\n",
  "sourcePath": "D:/B.E/VI sem/Project/New/Dora-The-Explorer/contracts/MyContract.sol",
  "compiler": {
    "name": "solc",
    "version": "0.5.16+commit.9c3226ce.Emscripten.clang"
  },
  "schemaVersion": "3.3.3",
  "updatedAt": "2021-04-24T07:59:57.837Z",
  "networkType": "ethereum",
  "devdoc": {
    "methods": {}
  },
  "userdoc": {
    "methods": {}
  }
}