{
  "contractName": "MyContract",
  "abi": [
    {
      "constant": true,
      "inputs": [],
      "name": "ansCount",
      "outputs": [
        {
          "internalType": "uint256",
          "name": "",
          "type": "uint256"
        }
      ],
      "payable": false,
      "stateMutability": "view",
      "type": "function"
    },
    {
      "constant": true,
      "inputs": [
        {
          "internalType": "uint256",
          "name": "",
          "type": "uint256"
        }
      ],
      "name": "answers",
      "outputs": [
        {
          "internalType": "uint256",
          "name": "queId",
          "type": "uint256"
        },
        {
          "internalType": "address payable",
          "name": "author",
          "type": "address"
        },
        {
          "internalType": "string",
          "name": "answer",
          "type": "string"
        },
        {
          "internalType": "uint256",
          "name": "tipAmount",
          "type": "uint256"
        }
      ],
      "payable": false,
      "stateMutability": "view",
      "type": "function"
    },
    {
      "constant": true,
      "inputs": [],
      "name": "queCount",
      "outputs": [
        {
          "internalType": "uint256",
          "name": "",
          "type": "uint256"
        }
      ],
      "payable": false,
      "stateMutability": "view",
      "type": "function"
    },
    {
      "constant": true,
      "inputs": [
        {
          "internalType": "uint256",
          "name": "",
          "type": "uint256"
        }
      ],
      "name": "questions",
      "outputs": [
        {
          "internalType": "uint256",
          "name": "id",
          "type": "uint256"
        },
        {
          "internalType": "address",
          "name": "author",
          "type": "address"
        },
        {
          "internalType": "string",
          "name": "question",
          "type": "string"
        }
      ],
      "payable": false,
      "stateMutability": "view",
      "type": "function"
    },
    {
      "constant": false,
      "inputs": [
        {
          "internalType": "string",
          "name": "_question",
          "type": "string"
        }
      ],
      "name": "postQuestion",
      "outputs": [],
      "payable": false,
      "stateMutability": "nonpayable",
      "type": "function"
    },
    {
      "constant": false,
      "inputs": [
        {
          "internalType": "uint256",
          "name": "_queId",
          "type": "uint256"
        },
        {
          "internalType": "string",
          "name": "_answer",
          "type": "string"
        }
      ],
      "name": "addAnswer",
      "outputs": [],
      "payable": false,
      "stateMutability": "nonpayable",
      "type": "function"
    },
    {
      "constant": false,
      "inputs": [
        {
          "internalType": "uint256",
          "name": "_ansCount",
          "type": "uint256"
        }
      ],
      "name": "tipAnswer",
      "outputs": [],
      "payable": true,
      "stateMutability": "payable",
      "type": "function"
    }
  ],
  "bytecode": "0x608060405260008055600060015534801561001957600080fd5b506109e0806100296000396000f3fe6080604052600436106100705760003560e01c80633c7c39611161004e5780633c7c3961146102865780637116cad8146102b15780637491995a14610379578063afcc03061461044b57610070565b806317599cc5146100755780631cd86e8f1461016a57806331b1b97814610198575b600080fd5b34801561008157600080fd5b506100ae6004803603602081101561009857600080fd5b8101908080359060200190929190505050610476565b604051808581526020018473ffffffffffffffffffffffffffffffffffffffff1673ffffffffffffffffffffffffffffffffffffffff16815260200180602001838152602001828103825284818151815260200191508051906020019080838360005b8381101561012c578082015181840152602081019050610111565b50505050905090810190601f1680156101595780820380516001836020036101000a031916815260200191505b509550505050505060405180910390f35b6101966004803603602081101561018057600080fd5b810190808035906020019092919050505061056b565b005b3480156101a457600080fd5b506101d1600480360360208110156101bb57600080fd5b810190808035906020019092919050505061060e565b604051808481526020018373ffffffffffffffffffffffffffffffffffffffff1673ffffffffffffffffffffffffffffffffffffffff16815260200180602001828103825283818151815260200191508051906020019080838360005b8381101561024957808201518184015260208101905061022e565b50505050905090810190601f1680156102765780820380516001836020036101000a031916815260200191505b5094505050505060405180910390f35b34801561029257600080fd5b5061029b6106f0565b6040518082815260200191505060405180910390f35b3480156102bd57600080fd5b50610377600480360360208110156102d457600080fd5b81019080803590602001906401000000008111156102f157600080fd5b82018360208201111561030357600080fd5b8035906020019184600183028401116401000000008311171561032557600080fd5b91908080601f016020809104026020016040519081016040528093929190818152602001838380828437600081840152601f19601f8201169050808301925050505050505091929192905050506106f6565b005b34801561038557600080fd5b506104496004803603604081101561039c57600080fd5b8101908080359060200190929190803590602001906401000000008111156103c357600080fd5b8201836020820111156103d557600080fd5b803590602001918460018302840111640100000000831117156103f757600080fd5b91908080601f016020809104026020016040519081016040528093929190818152602001838380828437600081840152601f19601f82011690508083019250505050505050919291929050505061078a565b005b34801561045757600080fd5b50610460610880565b6040518082815260200191505060405180910390f35b6003818154811061048357fe5b90600052602060002090600402016000915090508060000154908060010160009054906101000a900473ffffffffffffffffffffffffffffffffffffffff1690806002018054600181600116156101000203166002900480601f01602080910402602001604051908101604052809291908181526020018280546001816001161561010002031660029004801561055b5780601f106105305761010080835404028352916020019161055b565b820191906000526020600020905b81548152906001019060200180831161053e57829003601f168201915b5050505050908060030154905084565b60006003828154811061057a57fe5b9060005260206000209060040201905060008160010160009054906101000a900473ffffffffffffffffffffffffffffffffffffffff1690508073ffffffffffffffffffffffffffffffffffffffff166108fc349081150290604051600060405180830381858888f193505050501580156105f9573d6000803e3d6000fd5b50348260030154018260030181905550505050565b60026020528060005260406000206000915090508060000154908060010160009054906101000a900473ffffffffffffffffffffffffffffffffffffffff1690806002018054600181600116156101000203166002900480601f0160208091040260200160405190810160405280929190818152602001828054600181600116156101000203166002900480156106e65780601f106106bb576101008083540402835291602001916106e6565b820191906000526020600020905b8154815290600101906020018083116106c957829003601f168201915b5050505050905083565b60015481565b6000808154809291906001019190505550600060026000805481526020019081526020016000209050338160010160006101000a81548173ffffffffffffffffffffffffffffffffffffffff021916908373ffffffffffffffffffffffffffffffffffffffff1602179055508181600201908051906020019061077a929190610886565b5060005481600001819055505050565b600160008154809291906001019190505550600360405180608001604052808481526020013373ffffffffffffffffffffffffffffffffffffffff1681526020018381526020016000815250908060018154018082558091505090600182039060005260206000209060040201600090919290919091506000820151816000015560208201518160010160006101000a81548173ffffffffffffffffffffffffffffffffffffffff021916908373ffffffffffffffffffffffffffffffffffffffff160217905550604082015181600201908051906020019061086e929190610906565b50606082015181600301555050505050565b60005481565b828054600181600116156101000203166002900490600052602060002090601f016020900481019282601f106108c757805160ff19168380011785556108f5565b828001600101855582156108f5579182015b828111156108f45782518255916020019190600101906108d9565b5b5090506109029190610986565b5090565b828054600181600116156101000203166002900490600052602060002090601f016020900481019282601f1061094757805160ff1916838001178555610975565b82800160010185558215610975579182015b82811115610974578251825591602001919060010190610959565b5b5090506109829190610986565b5090565b6109a891905b808211156109a457600081600090555060010161098c565b5090565b9056fea265627a7a72315820dc304dfb41e7e8c44ef350d39a76c645a5e664ebba9296b61048959064a28d4d64736f6c63430005100032",
  "source": "// SPDX-License-Identifier: GPL-3.0\r\n\r\npragma solidity >=0.5.16 <0.8.0;\r\n\r\ncontract MyContract {\r\n  \r\n    uint256 public queCount = 0;\r\n    uint256 public ansCount = 0;\r\n    mapping(uint256 => Question) public questions;\r\n    \r\n    Answer[] public answers;\r\n\r\n    struct  Answer {\r\n        uint queId;\r\n        address payable author;\r\n        string answer;\r\n        uint tipAmount;\r\n    }\r\n\r\n    struct Question {\r\n        uint id;\r\n        address author;\r\n        string question;\r\n    }\r\n\r\n    function postQuestion(string memory _question) public {\r\n        \r\n        queCount++;    \r\n        Question storage questionObj = questions[queCount];\r\n        questionObj.author = msg.sender;\r\n        questionObj.question = _question;\r\n        questionObj.id = queCount;\r\n    }\r\n    \r\n    function addAnswer(uint _queId, string memory _answer) public{\r\n\r\n        ansCount++;\r\n        answers.push(Answer({\r\n            queId : _queId,\r\n            author: msg.sender,\r\n            answer: _answer,\r\n            tipAmount: 0\r\n        }));\r\n    }\r\n\r\n    function tipAnswer(uint _ansCount) public payable{\r\n        Answer storage answerObj = answers[_ansCount];\r\n        // Fetch the author\r\n        address payable _author = answerObj.author;\r\n        (_author).transfer(msg.value);\r\n        answerObj.tipAmount = answerObj.tipAmount + msg.value;\r\n    }\r\n    \r\n}\r\n",
  "sourcePath": "D:/B.E/VI sem/Project/Dora-The-Explorer/contracts/MyContract.sol",
  "compiler": {
    "name": "solc",
    "version": "0.5.16+commit.9c3226ce.Emscripten.clang"
  },
  "schemaVersion": "3.3.3",
  "updatedAt": "2021-03-13T15:08:58.852Z",
  "networkType": "ethereum",
  "devdoc": {
    "methods": {}
  },
  "userdoc": {
    "methods": {}
  }
}